{"abi":[{"type":"constructor","inputs":[{"name":"_bridge_address","type":"address","internalType":"address"}],"stateMutability":"nonpayable"},{"type":"function","name":"assign","inputs":[{"name":"tokenId","type":"string","internalType":"string"},{"name":"receiver_account","type":"address","internalType":"address"},{"name":"amount","type":"uint256","internalType":"uint256"}],"outputs":[{"name":"success","type":"bool","internalType":"bool"}],"stateMutability":"nonpayable"},{"type":"function","name":"bridge_address","inputs":[],"outputs":[{"name":"","type":"address","internalType":"address"}],"stateMutability":"view"},{"type":"function","name":"burn","inputs":[{"name":"tokenId","type":"string","internalType":"string"},{"name":"amount","type":"uint256","internalType":"uint256"}],"outputs":[{"name":"success","type":"bool","internalType":"bool"}],"stateMutability":"nonpayable"},{"type":"function","name":"getAllAssetsIDs","inputs":[],"outputs":[{"name":"","type":"string[]","internalType":"string[]"}],"stateMutability":"view"},{"type":"function","name":"getToken","inputs":[{"name":"tokenId","type":"string","internalType":"string"}],"outputs":[{"name":"token","type":"tuple","internalType":"struct Token","components":[{"name":"contractName","type":"string","internalType":"string"},{"name":"contractAddress","type":"address","internalType":"address"},{"name":"tokenType","type":"uint8","internalType":"enum TokenType"},{"name":"tokenId","type":"string","internalType":"string"},{"name":"referenceId","type":"string","internalType":"string"},{"name":"owner","type":"address","internalType":"address"},{"name":"amount","type":"uint256","internalType":"uint256"}]}],"stateMutability":"view"},{"type":"function","name":"lock","inputs":[{"name":"tokenId","type":"string","internalType":"string"},{"name":"amount","type":"uint256","internalType":"uint256"}],"outputs":[{"name":"success","type":"bool","internalType":"bool"}],"stateMutability":"nonpayable"},{"type":"function","name":"mint","inputs":[{"name":"tokenId","type":"string","internalType":"string"},{"name":"amount","type":"uint256","internalType":"uint256"}],"outputs":[{"name":"success","type":"bool","internalType":"bool"}],"stateMutability":"nonpayable"},{"type":"function","name":"owner","inputs":[],"outputs":[{"name":"","type":"address","internalType":"address"}],"stateMutability":"view"},{"type":"function","name":"renounceOwnership","inputs":[],"outputs":[],"stateMutability":"nonpayable"},{"type":"function","name":"schemaProfileSignatures","inputs":[{"name":"","type":"string","internalType":"string"}],"outputs":[{"name":"","type":"string","internalType":"string"}],"stateMutability":"view"},{"type":"function","name":"tokens","inputs":[{"name":"","type":"string","internalType":"string"}],"outputs":[{"name":"contractName","type":"string","internalType":"string"},{"name":"contractAddress","type":"address","internalType":"address"},{"name":"tokenType","type":"uint8","internalType":"enum TokenType"},{"name":"tokenId","type":"string","internalType":"string"},{"name":"referenceId","type":"string","internalType":"string"},{"name":"owner","type":"address","internalType":"address"},{"name":"amount","type":"uint256","internalType":"uint256"}],"stateMutability":"view"},{"type":"function","name":"tokensInteractions","inputs":[{"name":"","type":"string","internalType":"string"},{"name":"","type":"uint8","internalType":"enum InteractionType"}],"outputs":[{"name":"interactionType","type":"uint8","internalType":"enum InteractionType"},{"name":"available","type":"bool","internalType":"bool"}],"stateMutability":"view"},{"type":"function","name":"transferOwnership","inputs":[{"name":"newOwner","type":"address","internalType":"address"}],"outputs":[],"stateMutability":"nonpayable"},{"type":"function","name":"unlock","inputs":[{"name":"tokenId","type":"string","internalType":"string"},{"name":"amount","type":"uint256","internalType":"uint256"}],"outputs":[{"name":"success","type":"bool","internalType":"bool"}],"stateMutability":"nonpayable"},{"type":"function","name":"unwrap","inputs":[{"name":"tokenId","type":"string","internalType":"string"}],"outputs":[{"name":"success","type":"bool","internalType":"bool"}],"stateMutability":"nonpayable"},{"type":"function","name":"wrap","inputs":[{"name":"contractName","type":"string","internalType":"string"},{"name":"contractAddress","type":"address","internalType":"address"},{"name":"tokenType","type":"uint8","internalType":"enum TokenType"},{"name":"tokenId","type":"string","internalType":"string"},{"name":"referenceId","type":"string","internalType":"string"},{"name":"owner","type":"address","internalType":"address"}],"outputs":[{"name":"wrapSuccess","type":"bool","internalType":"bool"}],"stateMutability":"nonpayable"},{"type":"function","name":"wrap","inputs":[{"name":"contractName","type":"string","internalType":"string"},{"name":"contractAddress","type":"address","internalType":"address"},{"name":"tokenType","type":"uint8","internalType":"enum TokenType"},{"name":"tokenId","type":"string","internalType":"string"},{"name":"referenceId","type":"string","internalType":"string"},{"name":"owner","type":"address","internalType":"address"},{"name":"interactions","type":"tuple[]","internalType":"struct InteractionSignature[]","components":[{"name":"interactionType","type":"uint8","internalType":"enum InteractionType"},{"name":"functionsSignature","type":"string[]","internalType":"string[]"},{"name":"variables","type":"uint8[][]","internalType":"enum VarType[][]"},{"name":"available","type":"bool","internalType":"bool"}]}],"outputs":[{"name":"wrapSuccess","type":"bool","internalType":"bool"}],"stateMutability":"nonpayable"},{"type":"event","name":"Assign","inputs":[{"name":"tokenId","type":"string","indexed":true,"internalType":"string"},{"name":"receiver_account","type":"address","indexed":false,"internalType":"address"},{"name":"amount","type":"uint256","indexed":false,"internalType":"uint256"}],"anonymous":false},{"type":"event","name":"Burn","inputs":[{"name":"tokenId","type":"string","indexed":true,"internalType":"string"},{"name":"amount","type":"uint256","indexed":false,"internalType":"uint256"}],"anonymous":false},{"type":"event","name":"Changed","inputs":[{"name":"id","type":"string","indexed":true,"internalType":"string"},{"name":"value","type":"bytes[]","indexed":false,"internalType":"bytes[]"}],"anonymous":false},{"type":"event","name":"Lock","inputs":[{"name":"tokenId","type":"string","indexed":true,"internalType":"string"},{"name":"amount","type":"uint256","indexed":false,"internalType":"uint256"}],"anonymous":false},{"type":"event","name":"Mint","inputs":[{"name":"tokenId","type":"string","indexed":true,"internalType":"string"},{"name":"amount","type":"uint256","indexed":false,"internalType":"uint256"}],"anonymous":false},{"type":"event","name":"OwnershipTransferred","inputs":[{"name":"previousOwner","type":"address","indexed":true,"internalType":"address"},{"name":"newOwner","type":"address","indexed":true,"internalType":"address"}],"anonymous":false},{"type":"event","name":"Unlock","inputs":[{"name":"tokenId","type":"string","indexed":true,"internalType":"string"},{"name":"amount","type":"uint256","indexed":false,"internalType":"uint256"}],"anonymous":false},{"type":"event","name":"Unwrap","inputs":[{"name":"tokenId","type":"string","indexed":true,"internalType":"string"}],"anonymous":false},{"type":"event","name":"Wrap","inputs":[{"name":"tokenId","type":"string","indexed":true,"internalType":"string"},{"name":"contractName","type":"string","indexed":false,"internalType":"string"},{"name":"contractAddress","type":"address","indexed":false,"internalType":"address"},{"name":"tokenType","type":"uint8","indexed":false,"internalType":"enum TokenType"},{"name":"owner","type":"address","indexed":false,"internalType":"address"}],"anonymous":false},{"type":"error","name":"InsuficientAmountLocked","inputs":[{"name":"tokenId","type":"string","internalType":"string"},{"name":"amount","type":"uint256","internalType":"uint256"}]},{"type":"error","name":"OwnableInvalidOwner","inputs":[{"name":"owner","type":"address","internalType":"address"}]},{"type":"error","name":"OwnableUnauthorizedAccount","inputs":[{"name":"account","type":"address","internalType":"address"}]},{"type":"error","name":"TokenAlreadyWrapped","inputs":[{"name":"tokenId","type":"string","internalType":"string"}]},{"type":"error","name":"TokenLocked","inputs":[{"name":"tokenId","type":"string","internalType":"string"}]},{"type":"error","name":"TokenNotAvailable","inputs":[{"name":"tokenId","type":"string","internalType":"string"}]},{"type":"error","name":"TokenNotLocked","inputs":[{"name":"tokenId","type":"string","internalType":"string"}]},{"type":"error","name":"TokenNotUnlocked","inputs":[{"name":"tokenId","type":"string","internalType":"string"}]}],"bytecode":{"object":"0x60806040523480156200001157600080fd5b506040516200326e3803806200326e8339810160408190526200003491620000e6565b806001600160a01b0381166200006457604051631e4fbdf760e01b81526000600482015260240160405180910390fd5b6200006f8162000096565b50600580546001600160a01b0319166001600160a01b039290921691909117905562000118565b600080546001600160a01b038381166001600160a01b0319831681178455604051919092169283917f8be0079c531659141344cd1fd0a4f28419497f9722a3daafe3b4186f6b6457e09190a35050565b600060208284031215620000f957600080fd5b81516001600160a01b03811681146200011157600080fd5b9392505050565b61314680620001286000396000f3fe608060405234801561001057600080fd5b506004361061011b5760003560e01c8063a1bc17c5116100b2578063d9cf884c11610081578063ea8f547f11610066578063ea8f547f1461027f578063f272660b146102d6578063f2fde38b146102e957600080fd5b8063d9cf884c14610259578063e1efb5961461026c57600080fd5b8063a1bc17c5146101f3578063ab591e0514610206578063b48272cc14610226578063c1733f681461023957600080fd5b80635137b8a7116100ee5780635137b8a7146101b05780636a0876e0146101c5578063715018a6146101d85780638da5cb5b146101e257600080fd5b806304c2320b14610120578063056b01ce1461014f5780631255c189146101725780634534ba171461019d575b600080fd5b61013361012e366004612361565b6102fc565b6040516101469796959493929190612410565b60405180910390f35b61016261015d36600461247c565b6104f5565b6040519015158152602001610146565b600554610185906001600160a01b031681565b6040516001600160a01b039091168152602001610146565b6101626101ab3660046124d8565b61062e565b6101b8610799565b604051610146919061252f565b6101626101d33660046125a0565b610872565b6101e0610957565b005b6000546001600160a01b0316610185565b610162610201366004612361565b61096b565b610219610214366004612361565b610bb2565b6040516101469190612659565b61016261023436600461247c565b610c57565b61024c610247366004612361565b610da5565b604051610146919061266c565b61016261026736600461247c565b611029565b61016261027a36600461247c565b6111bc565b6102c861028d366004612723565b8151602081840181018051600282529282019482019490942091909352909152600090815260409020805460039091015460ff918216911682565b604051610146929190612781565b6101626102e4366004612a4b565b6112e2565b6101e06102f7366004612b2a565b611613565b805160208183018101805160018252928201919093012091528054819061032290612b45565b80601f016020809104026020016040519081016040528092919081815260200182805461034e90612b45565b801561039b5780601f106103705761010080835404028352916020019161039b565b820191906000526020600020905b81548152906001019060200180831161037e57829003601f168201915b50505050600183015460028401805493946001600160a01b03831694600160a01b90930460ff169350916103ce90612b45565b80601f01602080910402602001604051908101604052809291908181526020018280546103fa90612b45565b80156104475780601f1061041c57610100808354040283529160200191610447565b820191906000526020600020905b81548152906001019060200180831161042a57829003601f168201915b50505050509080600301805461045c90612b45565b80601f016020809104026020016040519081016040528092919081815260200182805461048890612b45565b80156104d55780601f106104aa576101008083540402835291602001916104d5565b820191906000526020600020905b8154815290600101906020018083116104b857829003601f168201915b50505050600483015460059093015491926001600160a01b031691905087565b60006104ff61166a565b60006001600160a01b031660018460405161051a9190612b7f565b908152604051908190036020019020600101546001600160a01b03160361055f578260405163c0bab25f60e01b81526004016105569190612659565b60405180910390fd5b61056b836000846116b0565b6105b75760405162461bcd60e51b815260206004820152601660248201527f6d696e742061737365742063616c6c206661696c6564000000000000000000006044820152606401610556565b816001846040516105c89190612b7f565b908152604051908190036020018120600501919091556105e9908490612b7f565b604051908190038120838252907f0a4e1e5035320483d096cf114513007c4eda3853a4dca806da2d9faec60470a6906020015b60405180910390a25060015b92915050565b600061063861166a565b816001856040516106499190612b7f565b90815260200160405180910390206005015410156106a95760405162461bcd60e51b815260206004820181905260248201527f61737369676e206173736574206173736574206973206e6f74206c6f636b65646044820152606401610556565b6106b684600284866116c7565b6107025760405162461bcd60e51b815260206004820152601860248201527f61737369676e2061737365742063616c6c206661696c656400000000000000006044820152606401610556565b816001856040516107139190612b7f565b908152602001604051809103902060050160008282546107339190612bb1565b9091555050604051610746908590612b7f565b604080519182900382206001600160a01b038616835260208301859052917f0b3112bdbedc0251766a323a5c6ad4df77174bbc08bd61b944815ad9efe8d54c910160405180910390a25060019392505050565b60606003805480602002602001604051908101604052809291908181526020016000905b828210156108695783829060005260206000200180546107dc90612b45565b80601f016020809104026020016040519081016040528092919081815260200182805461080890612b45565b80156108555780601f1061082a57610100808354040283529160200191610855565b820191906000526020600020905b81548152906001019060200180831161083857829003601f168201915b5050505050815260200190600101906107bd565b50505050905090565b600061087c61166a565b3063f272660b88888888888860006040519080825280602002602001820160405280156108e657816020015b6108d36040805160808101909152806000815260606020820181905260408201819052600091015290565b8152602001906001900390816108a85790505b506040518863ffffffff1660e01b81526004016109099796959493929190612c50565b6020604051808303816000875af1158015610928573d6000803e3d6000fd5b505050506040513d601f19601f8201168201806040525081019061094c9190612da7565b979650505050505050565b61095f61166a565b61096960006119e3565b565b600061097561166a565b60006001600160a01b03166001836040516109909190612b7f565b908152604051908190036020019020600101546001600160a01b0316036109cc578160405163c0bab25f60e01b81526004016105569190612659565b60006001836040516109de9190612b7f565b9081526020016040518091039020600501541115610a2a57816040517fb7d2c10a0000000000000000000000000000000000000000000000000000000081526004016105569190612659565b610adc600183604051610a3d9190612b7f565b90815260200160405180910390206002018054610a5990612b45565b80601f0160208091040260200160405190810160405280929190818152602001828054610a8590612b45565b8015610ad25780601f10610aa757610100808354040283529160200191610ad2565b820191906000526020600020905b815481529060010190602001808311610ab557829003601f168201915b5050505050611a40565b600182604051610aec9190612b7f565b9081526040519081900360200190206000610b078282612074565b60018201805474ffffffffffffffffffffffffffffffffffffffffff19169055610b35600283016000612074565b610b43600383016000612074565b5060048101805473ffffffffffffffffffffffffffffffffffffffff191690556000600590910155604051610b79908390612b7f565b604051908190038120907f3855d31914452a5e7361730662e60834555d7cb26d380140894d85fd0d13b85490600090a25060015b919050565b805160208183018101805160048252928201919093012091528054610bd690612b45565b80601f0160208091040260200160405190810160405280929190818152602001828054610c0290612b45565b8015610c4f5780601f10610c2457610100808354040283529160200191610c4f565b820191906000526020600020905b815481529060010190602001808311610c3257829003601f168201915b505050505081565b6000610c6161166a565b81600184604051610c729190612b7f565b9081526020016040518091039020600501541015610cd25760405162461bcd60e51b815260206004820152601e60248201527f6275726e206173736574206173736574206973206e6f74206c6f636b656400006044820152606401610556565b610cde836001846116b0565b610d2a5760405162461bcd60e51b815260206004820152601660248201527f6275726e2061737365742063616c6c206661696c6564000000000000000000006044820152606401610556565b81600184604051610d3b9190612b7f565b90815260200160405180910390206005016000828254610d5b9190612bb1565b9091555050604051610d6e908490612b7f565b604051908190038120838252907fa0237080cf48d9e1fbb9ef1f82e33b11170d047b2b540a73b457d0916d53ee999060200161061c565b6040805160e0810182526060808252600060208301819052928201839052808201819052608082015260a0810182905260c0810191909152600182604051610ded9190612b7f565b90815260200160405180910390206040518060e0016040529081600082018054610e1690612b45565b80601f0160208091040260200160405190810160405280929190818152602001828054610e4290612b45565b8015610e8f5780601f10610e6457610100808354040283529160200191610e8f565b820191906000526020600020905b815481529060010190602001808311610e7257829003601f168201915b505050918352505060018201546001600160a01b0381166020830152604090910190600160a01b900460ff166004811115610ecc57610ecc6123e6565b6004811115610edd57610edd6123e6565b8152602001600282018054610ef190612b45565b80601f0160208091040260200160405190810160405280929190818152602001828054610f1d90612b45565b8015610f6a5780601f10610f3f57610100808354040283529160200191610f6a565b820191906000526020600020905b815481529060010190602001808311610f4d57829003601f168201915b50505050508152602001600382018054610f8390612b45565b80601f0160208091040260200160405190810160405280929190818152602001828054610faf90612b45565b8015610ffc5780601f10610fd157610100808354040283529160200191610ffc565b820191906000526020600020905b815481529060010190602001808311610fdf57829003601f168201915b505050918352505060048201546001600160a01b0316602082015260059091015460409091015292915050565b600061103361166a565b60006001600160a01b031660018460405161104e9190612b7f565b908152604051908190036020019020600101546001600160a01b03160361108a578260405163c0bab25f60e01b81526004016105569190612659565b8160018460405161109b9190612b7f565b90815260200160405180910390206005015410156110e95782826040517fed579e60000000000000000000000000000000000000000000000000000000008152600401610556929190612dc4565b60006110f7846005856116b0565b9050801561118857826001856040516111109190612b7f565b908152602001604051809103902060050160008282546111309190612bb1565b9091555050604051611143908590612b7f565b604051908190038120848252907f7b3c894115251262b174b7aeab24a57e00bc2e8853d1ef2f57a217edaa69c06e906020015b60405180910390a26001915050610628565b836040517f58300fe70000000000000000000000000000000000000000000000000000000081526004016105569190612659565b60006111c661166a565b60006001600160a01b03166001846040516111e19190612b7f565b908152604051908190036020019020600101546001600160a01b03160361121d578260405163c0bab25f60e01b81526004016105569190612659565b600061122b846004856116b0565b905080156112ae57826001856040516112449190612b7f565b908152602001604051809103902060050160008282546112649190612de6565b9091555050604051611277908590612b7f565b604051908190038120848252907fc480ef4e831b2ca5eb0b2f95c6564d9a56af5b3fe2383393008e3f1708dc979790602001611176565b836040517f8244096a0000000000000000000000000000000000000000000000000000000081526004016105569190612659565b60006112ec61166a565b60006001600160a01b03166001866040516113079190612b7f565b908152604051908190036020019020600101546001600160a01b03161461135c57846040517f67ab23440000000000000000000000000000000000000000000000000000000081526004016105569190612659565b6113668583611b9e565b6002856040516113769190612b7f565b9081526040805160209281900383019020600360008181529190935220015460ff161561141a576113a8856003611cbe565b61141a5760405162461bcd60e51b815260206004820152603c60248201527f436f6e747261637420646f6573206e6f742068617665207065726d697373696f60448201527f6e20746f20696e74657261637420776974682074686520746f6b656e000000006064820152608401610556565b6040518060e00160405280898152602001886001600160a01b0316815260200187600481111561144c5761144c6123e6565b8152602001868152602001858152602001846001600160a01b0316815260200160008152506001866040516114819190612b7f565b9081526040519081900360200190208151819061149e9082612e47565b5060208201516001820180546001600160a01b0390921673ffffffffffffffffffffffffffffffffffffffff1983168117825560408501519274ffffffffffffffffffffffffffffffffffffffffff191617600160a01b836004811115611507576115076123e6565b0217905550606082015160028201906115209082612e47565b50608082015160038201906115359082612e47565b5060a082015160048201805473ffffffffffffffffffffffffffffffffffffffff19166001600160a01b0390921691909117905560c090910151600590910155600380546001810182556000919091527fc2575a0e9e593c00f959f8c92f12db2869c3395a3b0502d05e2516446f71f85b016115b18682612e47565b50846040516115c09190612b7f565b60405180910390207f1455a30f034090309f76768ab435a6bd3c547427fc31dbe48477cfb5b9f47dda898989876040516115fd9493929190612f07565b60405180910390a2506001979650505050505050565b61161b61166a565b6001600160a01b03811661165e576040517f1e4fbdf700000000000000000000000000000000000000000000000000000000815260006004820152602401610556565b611667816119e3565b50565b6000546001600160a01b03163314610969576040517f118cdaa7000000000000000000000000000000000000000000000000000000008152336004820152602401610556565b60006116bf84848460006116c7565b949350505050565b60006002856040516116d99190612b7f565b908152602001604051809103902060008560058111156116fb576116fb6123e6565b600581111561170c5761170c6123e6565b815260208101919091526040016000206003015460ff1661172f575060006116bf565b60005b6002866040516117429190612b7f565b90815260200160405180910390206000866005811115611764576117646123e6565b6005811115611775576117756123e6565b81526020810191909152604001600020600101548110156119d75760006002876040516117a29190612b7f565b908152602001604051809103902060008760058111156117c4576117c46123e6565b60058111156117d5576117d56123e6565b815260200190815260200160002060010182815481106117f7576117f7612f4b565b906000526020600020016040516020016118119190612f61565b604051602081830303815290604052805190602001209050600061192d8261192860028b6040516118429190612b7f565b908152602001604051809103902060008b6005811115611864576118646123e6565b6005811115611875576118756123e6565b8152602001908152602001600020600201868154811061189757611897612f4b565b9060005260206000200180548060200260200160405190810160405280929190818152602001828054801561191b57602002820191906000526020600020906000905b82829054906101000a900460ff1660068111156118f9576118f96123e6565b8152602060019283018181049485019490930390920291018084116118da5790505b50505050508b898b611cd4565b611fae565b905060006001896040516119419190612b7f565b908152604051908190036020018120600101546001600160a01b031690611969908490612b7f565b6000604051808303816000865af19150503d80600081146119a6576040519150601f19603f3d011682016040523d82523d6000602084013e6119ab565b606091505b50509050806119c15760009450505050506116bf565b50505080806119cf90612fd7565b915050611732565b50600195945050505050565b600080546001600160a01b0383811673ffffffffffffffffffffffffffffffffffffffff19831681178455604051919092169283917f8be0079c531659141344cd1fd0a4f28419497f9722a3daafe3b4186f6b6457e09190a35050565b60005b600354811015611b9a57611afc60038281548110611a6357611a63612f4b565b906000526020600020018054611a7890612b45565b80601f0160208091040260200160405190810160405280929190818152602001828054611aa490612b45565b8015611af15780601f10611ac657610100808354040283529160200191611af1565b820191906000526020600020905b815481529060010190602001808311611ad457829003601f168201915b50505050508361204f565b15611b885760038054611b1190600190612bb1565b81548110611b2157611b21612f4b565b9060005260206000200160038281548110611b3e57611b3e612f4b565b906000526020600020019081611b549190612ff0565b506003805480611b6657611b666130cb565b600190038181906000526020600020016000611b829190612074565b90555050565b80611b9281612fd7565b915050611a43565b5050565b60005b8151811015611cb957818181518110611bbc57611bbc612f4b565b6020026020010151600284604051611bd49190612b7f565b90815260200160405180910390206000848481518110611bf657611bf6612f4b565b6020026020010151600001516005811115611c1357611c136123e6565b6005811115611c2457611c246123e6565b8152602081019190915260400160002081518154829060ff19166001836005811115611c5257611c526123e6565b02179055506020828101518051611c6f92600185019201906120ae565b5060408201518051611c8b916002840191602090910190612104565b50606091909101516003909101805460ff191691151591909117905580611cb181612fd7565b915050611ba1565b505050565b6000611ccd83836000806116c7565b9392505050565b60606000855167ffffffffffffffff811115611cf257611cf2612281565b604051908082528060200260200182016040528015611d2557816020015b6060815260200190600190039081611d105790505b50905060005b8651811015611fa4576005878281518110611d4857611d48612f4b565b60200260200101516006811115611d6157611d616123e6565b03611da35760408051306020820152015b604051602081830303815290604052828281518110611d9357611d93612f4b565b6020026020010181905250611f92565b6002878281518110611db757611db7612f4b565b60200260200101516006811115611dd057611dd06123e6565b03611de65785604051602001611d729190612659565b6004878281518110611dfa57611dfa612f4b565b60200260200101516006811115611e1357611e136123e6565b03611e2957604080516020810186905201611d72565b6003878281518110611e3d57611e3d612f4b565b60200260200101516006811115611e5657611e566123e6565b03611e9457600186604051611e6b9190612b7f565b908152604080519182900360209081018320600401546001600160a01b03169083015201611d72565b6000878281518110611ea857611ea8612f4b565b60200260200101516006811115611ec157611ec16123e6565b03611eff57600186604051611ed69190612b7f565b908152604080519182900360209081018320600101546001600160a01b03169083015201611d72565b6006878281518110611f1357611f13612f4b565b60200260200101516006811115611f2c57611f2c6123e6565b03611f4a57604080516001600160a01b038716602082015201611d72565b60405162461bcd60e51b815260206004820152601660248201527f5661726961626c65206e6f7420737570706f72746564000000000000000000006044820152606401610556565b80611f9c81612fd7565b915050611d2b565b5095945050505050565b604080517fffffffff000000000000000000000000000000000000000000000000000000008416602082015281516004818303018152602490910190915260005b8251811015612048578183828151811061200b5761200b612f4b565b60200260200101516040516020016120249291906130e1565b6040516020818303038152906040529150808061204090612fd7565b915050611fef565b5092915050565b600081518351148015611ccd5750508051602091820120825192909101919091201490565b50805461208090612b45565b6000825580601f10612090575050565b601f016020900490600052602060002090810190611667919061215d565b8280548282559060005260206000209081019282156120f4579160200282015b828111156120f457825182906120e49082612e47565b50916020019190600101906120ce565b50612100929150612172565b5090565b828054828255906000526020600020908101928215612151579160200282015b82811115612151578251805161214191849160209091019061218f565b5091602001919060010190612124565b5061210092915061223f565b5b80821115612100576000815560010161215e565b808211156121005760006121868282612074565b50600101612172565b82805482825590600052602060002090601f016020900481019282156122335791602002820160005b8382111561220457835183826101000a81548160ff021916908360068111156121e3576121e36123e6565b021790555092602001926001016020816000010492830192600103026121b8565b80156122315782816101000a81549060ff0219169055600101602081600001049283019260010302612204565b505b5061210092915061215d565b80821115612100576000612253828261225c565b5060010161223f565b50805460008255601f016020900490600052602060002090810190611667919061215d565b634e487b7160e01b600052604160045260246000fd5b6040516080810167ffffffffffffffff811182821017156122ba576122ba612281565b60405290565b604051601f8201601f1916810167ffffffffffffffff811182821017156122e9576122e9612281565b604052919050565b600082601f83011261230257600080fd5b813567ffffffffffffffff81111561231c5761231c612281565b61232f601f8201601f19166020016122c0565b81815284602083860101111561234457600080fd5b816020850160208301376000918101602001919091529392505050565b60006020828403121561237357600080fd5b813567ffffffffffffffff81111561238a57600080fd5b6116bf848285016122f1565b60005b838110156123b1578181015183820152602001612399565b50506000910152565b600081518084526123d2816020860160208601612396565b601f01601f19169290920160200192915050565b634e487b7160e01b600052602160045260246000fd5b6005811061240c5761240c6123e6565b9052565b60e08152600061242360e083018a6123ba565b6001600160a01b03808a166020850152612440604085018a6123fc565b838203606085015261245282896123ba565b9150838203608085015261246682886123ba565b951660a0840152505060c0015295945050505050565b6000806040838503121561248f57600080fd5b823567ffffffffffffffff8111156124a657600080fd5b6124b2858286016122f1565b95602094909401359450505050565b80356001600160a01b0381168114610bad57600080fd5b6000806000606084860312156124ed57600080fd5b833567ffffffffffffffff81111561250457600080fd5b612510868287016122f1565b93505061251f602085016124c1565b9150604084013590509250925092565b6000602080830181845280855180835260408601915060408160051b870101925083870160005b8281101561258457603f198886030184526125728583516123ba565b94509285019290850190600101612556565b5092979650505050505050565b803560058110610bad57600080fd5b60008060008060008060c087890312156125b957600080fd5b863567ffffffffffffffff808211156125d157600080fd5b6125dd8a838b016122f1565b97506125eb60208a016124c1565b96506125f960408a01612591565b9550606089013591508082111561260f57600080fd5b61261b8a838b016122f1565b9450608089013591508082111561263157600080fd5b5061263e89828a016122f1565b92505061264d60a088016124c1565b90509295509295509295565b602081526000611ccd60208301846123ba565b602081526000825160e060208401526126896101008401826123ba565b905060208401516001600160a01b038082166040860152604086015191506126b460608601836123fc565b60608601519150601f19808685030160808701526126d284846123ba565b935060808701519250808685030160a0870152506126f083836123ba565b92508060a08701511660c0860152505060c084015160e08401528091505092915050565b803560068110610bad57600080fd5b6000806040838503121561273657600080fd5b823567ffffffffffffffff81111561274d57600080fd5b612759858286016122f1565b92505061276860208401612714565b90509250929050565b6006811061240c5761240c6123e6565b6040810161278f8285612771565b82151560208301529392505050565b600067ffffffffffffffff8211156127b8576127b8612281565b5060051b60200190565b600082601f8301126127d357600080fd5b813560206127e86127e38361279e565b6122c0565b828152600592831b850182019282820191908785111561280757600080fd5b8387015b858110156128ac57803567ffffffffffffffff81111561282b5760008081fd5b8801603f81018a1361283d5760008081fd5b85810135604061284f6127e38361279e565b82815291851b8301810191888101908d84111561286c5760008081fd5b938201935b8385101561289b57843592506007831061288b5760008081fd5b8282529389019390890190612871565b88525050509385019350840161280b565b5090979650505050505050565b801515811461166757600080fd5b8035610bad816128b9565b600082601f8301126128e357600080fd5b6128f06127e3833561279e565b82358082526020808301929160051b8501018581111561290f57600080fd5b602085015b81811015612a405767ffffffffffffffff808235111561293357600080fd5b813587016080818a03601f1901121561294b57600080fd5b612953612297565b61295f60208301612714565b815260408201358381111561297357600080fd5b8201603f81018b1361298457600080fd5b60208101356129956127e38261279e565b81815260059190911b82016040019060208101908d8311156129b657600080fd5b604084015b838110156129ef5787813511156129d157600080fd5b6129e18f604083358801016122f1565b8352602092830192016129bb565b506020850152505050606082013583811115612a0a57600080fd5b612a198b6020838601016127c2565b604083015250612a2b608083016128c7565b60608201528652505060209384019301612914565b509095945050505050565b600080600080600080600060e0888a031215612a6657600080fd5b873567ffffffffffffffff80821115612a7e57600080fd5b612a8a8b838c016122f1565b9850612a9860208b016124c1565b9750612aa660408b01612591565b965060608a0135915080821115612abc57600080fd5b612ac88b838c016122f1565b955060808a0135915080821115612ade57600080fd5b612aea8b838c016122f1565b9450612af860a08b016124c1565b935060c08a0135915080821115612b0e57600080fd5b50612b1b8a828b016128d2565b91505092959891949750929550565b600060208284031215612b3c57600080fd5b611ccd826124c1565b600181811c90821680612b5957607f821691505b602082108103612b7957634e487b7160e01b600052602260045260246000fd5b50919050565b60008251612b91818460208701612396565b9190910192915050565b634e487b7160e01b600052601160045260246000fd5b8181038181111561062857610628612b9b565b600081518084526020808501808196508360051b810191508286016000805b86811015612c42578385038a52825180518087529087019087870190845b81811015612c2d57835160078110612c1b57612c1b6123e6565b83529289019291890191600101612c01565b50509a87019a95505091850191600101612be3565b509298975050505050505050565b60e081526000612c6360e083018a6123ba565b60206001600160a01b03808b16828601526040612c828187018c6123fc565b606086850381880152612c95858c6123ba565b9450608087860381890152612caa868c6123ba565b955060a0848b16818a015288870360c08a015286945089518088528688019550868160051b890101878c0160005b83811015612d8d57601f198b84030189528151868401612cf9858351612771565b818c0151858d01899052805191829052600582901b8601880191908d01908887019060005b81811015612d4c57609f19898603018352612d3a8585516123ba565b9450928f0192918f0191600101612d1e565b50505050898201518582038b870152612d658282612bc4565b928a0151801515878c0152929150612d7a9050565b998b019993505090890190600101612cd8565b505080995050505050505050505098975050505050505050565b600060208284031215612db957600080fd5b8151611ccd816128b9565b604081526000612dd760408301856123ba565b90508260208301529392505050565b8082018082111561062857610628612b9b565b601f821115611cb957600081815260208120601f850160051c81016020861015612e205750805b601f850160051c820191505b81811015612e3f57828155600101612e2c565b505050505050565b815167ffffffffffffffff811115612e6157612e61612281565b612e7581612e6f8454612b45565b84612df9565b602080601f831160018114612eaa5760008415612e925750858301515b600019600386901b1c1916600185901b178555612e3f565b600085815260208120601f198616915b82811015612ed957888601518255948401946001909101908401612eba565b5085821015612ef75787850151600019600388901b60f8161c191681555b5050505050600190811b01905550565b608081526000612f1a60808301876123ba565b90506001600160a01b038086166020840152612f3960408401866123fc565b80841660608401525095945050505050565b634e487b7160e01b600052603260045260246000fd5b6000808354612f6f81612b45565b60018281168015612f875760018114612f9c57612fcb565b60ff1984168752821515830287019450612fcb565b8760005260208060002060005b85811015612fc25781548a820152908401908201612fa9565b50505082870194505b50929695505050505050565b600060018201612fe957612fe9612b9b565b5060010190565b818103612ffb575050565b6130058254612b45565b67ffffffffffffffff81111561301d5761301d612281565b61302b81612e6f8454612b45565b6000601f82116001811461305f57600083156130475750848201545b600019600385901b1c1916600184901b1784556130c4565b600085815260209020601f19841690600086815260209020845b838110156130995782860154825560019586019590910190602001613079565b50858310156130b75781850154600019600388901b60f8161c191681555b50505060018360011b0184555b5050505050565b634e487b7160e01b600052603160045260246000fd5b600083516130f3818460208801612396565b835190830190613107818360208801612396565b0194935050505056fea2646970667358221220a4b3666627c3c48f0c6257af550c417915698a57c9688b30871081179d981b3764736f6c63430008140033","linkReferences":{}},"methodIdentifiers":{"assign(string,address,uint256)":"4534ba17","bridge_address()":"1255c189","burn(string,uint256)":"b48272cc","getAllAssetsIDs()":"5137b8a7","getToken(string)":"c1733f68","lock(string,uint256)":"e1efb596","mint(string,uint256)":"056b01ce","owner()":"8da5cb5b","renounceOwnership()":"715018a6","schemaProfileSignatures(string)":"ab591e05","tokens(string)":"04c2320b","tokensInteractions(string,uint8)":"ea8f547f","transferOwnership(address)":"f2fde38b","unlock(string,uint256)":"d9cf884c","unwrap(string)":"a1bc17c5","wrap(string,address,uint8,string,string,address)":"6a0876e0","wrap(string,address,uint8,string,string,address,(uint8,string[],uint8[][],bool)[])":"f272660b"},"id":7}