{"abi":[{"type":"constructor","inputs":[{"name":"_owner","type":"address","internalType":"address"}],"stateMutability":"nonpayable"},{"type":"function","name":"BRIDGE_ROLE","inputs":[],"outputs":[{"name":"","type":"bytes32","internalType":"bytes32"}],"stateMutability":"view"},{"type":"function","name":"DEFAULT_ADMIN_ROLE","inputs":[],"outputs":[{"name":"","type":"bytes32","internalType":"bytes32"}],"stateMutability":"view"},{"type":"function","name":"OWNER_ROLE","inputs":[],"outputs":[{"name":"","type":"bytes32","internalType":"bytes32"}],"stateMutability":"view"},{"type":"function","name":"allowance","inputs":[{"name":"owner","type":"address","internalType":"address"},{"name":"spender","type":"address","internalType":"address"}],"outputs":[{"name":"","type":"uint256","internalType":"uint256"}],"stateMutability":"view"},{"type":"function","name":"approve","inputs":[{"name":"spender","type":"address","internalType":"address"},{"name":"value","type":"uint256","internalType":"uint256"}],"outputs":[{"name":"","type":"bool","internalType":"bool"}],"stateMutability":"nonpayable"},{"type":"function","name":"balanceOf","inputs":[{"name":"account","type":"address","internalType":"address"}],"outputs":[{"name":"","type":"uint256","internalType":"uint256"}],"stateMutability":"view"},{"type":"function","name":"burn","inputs":[{"name":"account","type":"address","internalType":"address"},{"name":"amount","type":"uint256","internalType":"uint256"}],"outputs":[{"name":"success","type":"bool","internalType":"bool"}],"stateMutability":"nonpayable"},{"type":"function","name":"decimals","inputs":[],"outputs":[{"name":"","type":"uint8","internalType":"uint8"}],"stateMutability":"view"},{"type":"function","name":"getRoleAdmin","inputs":[{"name":"role","type":"bytes32","internalType":"bytes32"}],"outputs":[{"name":"","type":"bytes32","internalType":"bytes32"}],"stateMutability":"view"},{"type":"function","name":"getSchemaId","inputs":[],"outputs":[{"name":"schemaId","type":"string","internalType":"string"}],"stateMutability":"view"},{"type":"function","name":"getSchemaProfile","inputs":[],"outputs":[{"name":"","type":"string","internalType":"string"}],"stateMutability":"pure"},{"type":"function","name":"grantBridgeRole","inputs":[{"name":"account","type":"address","internalType":"address"}],"outputs":[{"name":"success","type":"bool","internalType":"bool"}],"stateMutability":"nonpayable"},{"type":"function","name":"grantRole","inputs":[{"name":"role","type":"bytes32","internalType":"bytes32"},{"name":"account","type":"address","internalType":"address"}],"outputs":[],"stateMutability":"nonpayable"},{"type":"function","name":"hasBridgeRole","inputs":[{"name":"account","type":"address","internalType":"address"}],"outputs":[{"name":"success","type":"bool","internalType":"bool"}],"stateMutability":"view"},{"type":"function","name":"hasRole","inputs":[{"name":"role","type":"bytes32","internalType":"bytes32"},{"name":"account","type":"address","internalType":"address"}],"outputs":[{"name":"","type":"bool","internalType":"bool"}],"stateMutability":"view"},{"type":"function","name":"mint","inputs":[{"name":"account","type":"address","internalType":"address"},{"name":"amount","type":"uint256","internalType":"uint256"}],"outputs":[{"name":"success","type":"bool","internalType":"bool"}],"stateMutability":"nonpayable"},{"type":"function","name":"name","inputs":[],"outputs":[{"name":"","type":"string","internalType":"string"}],"stateMutability":"view"},{"type":"function","name":"renounceRole","inputs":[{"name":"role","type":"bytes32","internalType":"bytes32"},{"name":"callerConfirmation","type":"address","internalType":"address"}],"outputs":[],"stateMutability":"nonpayable"},{"type":"function","name":"revokeRole","inputs":[{"name":"role","type":"bytes32","internalType":"bytes32"},{"name":"account","type":"address","internalType":"address"}],"outputs":[],"stateMutability":"nonpayable"},{"type":"function","name":"setSchemaId","inputs":[{"name":"schemaId","type":"string","internalType":"string"}],"outputs":[],"stateMutability":"nonpayable"},{"type":"function","name":"supportsInterface","inputs":[{"name":"interfaceId","type":"bytes4","internalType":"bytes4"}],"outputs":[{"name":"","type":"bool","internalType":"bool"}],"stateMutability":"view"},{"type":"function","name":"symbol","inputs":[],"outputs":[{"name":"","type":"string","internalType":"string"}],"stateMutability":"view"},{"type":"function","name":"totalSupply","inputs":[],"outputs":[{"name":"","type":"uint256","internalType":"uint256"}],"stateMutability":"view"},{"type":"function","name":"transfer","inputs":[{"name":"to","type":"address","internalType":"address"},{"name":"value","type":"uint256","internalType":"uint256"}],"outputs":[{"name":"","type":"bool","internalType":"bool"}],"stateMutability":"nonpayable"},{"type":"function","name":"transferFrom","inputs":[{"name":"from","type":"address","internalType":"address"},{"name":"to","type":"address","internalType":"address"},{"name":"value","type":"uint256","internalType":"uint256"}],"outputs":[{"name":"","type":"bool","internalType":"bool"}],"stateMutability":"nonpayable"},{"type":"event","name":"Approval","inputs":[{"name":"owner","type":"address","indexed":true,"internalType":"address"},{"name":"spender","type":"address","indexed":true,"internalType":"address"},{"name":"value","type":"uint256","indexed":false,"internalType":"uint256"}],"anonymous":false},{"type":"event","name":"RoleAdminChanged","inputs":[{"name":"role","type":"bytes32","indexed":true,"internalType":"bytes32"},{"name":"previousAdminRole","type":"bytes32","indexed":true,"internalType":"bytes32"},{"name":"newAdminRole","type":"bytes32","indexed":true,"internalType":"bytes32"}],"anonymous":false},{"type":"event","name":"RoleGranted","inputs":[{"name":"role","type":"bytes32","indexed":true,"internalType":"bytes32"},{"name":"account","type":"address","indexed":true,"internalType":"address"},{"name":"sender","type":"address","indexed":true,"internalType":"address"}],"anonymous":false},{"type":"event","name":"RoleRevoked","inputs":[{"name":"role","type":"bytes32","indexed":true,"internalType":"bytes32"},{"name":"account","type":"address","indexed":true,"internalType":"address"},{"name":"sender","type":"address","indexed":true,"internalType":"address"}],"anonymous":false},{"type":"event","name":"Transfer","inputs":[{"name":"from","type":"address","indexed":true,"internalType":"address"},{"name":"to","type":"address","indexed":true,"internalType":"address"},{"name":"value","type":"uint256","indexed":false,"internalType":"uint256"}],"anonymous":false},{"type":"error","name":"AccessControlBadConfirmation","inputs":[]},{"type":"error","name":"AccessControlUnauthorizedAccount","inputs":[{"name":"account","type":"address","internalType":"address"},{"name":"neededRole","type":"bytes32","internalType":"bytes32"}]},{"type":"error","name":"ERC20InsufficientAllowance","inputs":[{"name":"spender","type":"address","internalType":"address"},{"name":"allowance","type":"uint256","internalType":"uint256"},{"name":"needed","type":"uint256","internalType":"uint256"}]},{"type":"error","name":"ERC20InsufficientBalance","inputs":[{"name":"sender","type":"address","internalType":"address"},{"name":"balance","type":"uint256","internalType":"uint256"},{"name":"needed","type":"uint256","internalType":"uint256"}]},{"type":"error","name":"ERC20InvalidApprover","inputs":[{"name":"approver","type":"address","internalType":"address"}]},{"type":"error","name":"ERC20InvalidReceiver","inputs":[{"name":"receiver","type":"address","internalType":"address"}]},{"type":"error","name":"ERC20InvalidSender","inputs":[{"name":"sender","type":"address","internalType":"address"}]},{"type":"error","name":"ERC20InvalidSpender","inputs":[{"name":"spender","type":"address","internalType":"address"}]},{"type":"error","name":"noPermission","inputs":[{"name":"adr","type":"address","internalType":"address"}]}],"bytecode":{"object":"0x60806040523480156200001157600080fd5b50604051620014b5380380620014b58339810160408190526200003491620001ac565b6040518060400160405280600981526020016829a0aa282a37b5b2b760b91b815250604051806040016040528060048152602001630534154560e41b815250816004908162000084919062000283565b50600562000093828262000283565b505050620000c87fb19546dff01e856fb3f010c267a7b1c60363cf8a4664e21cc89c26224620214e82620000fd60201b60201c565b50620000f57f52ba824bfabc2bcfcdf7f0edbb486ebb05e1836c90e78047efeb949990f72e5f82620000fd565b50506200034f565b6000828152602081815260408083206001600160a01b038516845290915281205460ff16620001a2576000838152602081815260408083206001600160a01b03861684529091529020805460ff19166001179055620001593390565b6001600160a01b0316826001600160a01b0316847f2f8788117e7eff1d82e926ec794901d17c78024a50270940304540a733656f0d60405160405180910390a4506001620001a6565b5060005b92915050565b600060208284031215620001bf57600080fd5b81516001600160a01b0381168114620001d757600080fd5b9392505050565b634e487b7160e01b600052604160045260246000fd5b600181811c908216806200020957607f821691505b6020821081036200022a57634e487b7160e01b600052602260045260246000fd5b50919050565b601f8211156200027e57600081815260208120601f850160051c81016020861015620002595750805b601f850160051c820191505b818110156200027a5782815560010162000265565b5050505b505050565b81516001600160401b038111156200029f576200029f620001de565b620002b781620002b08454620001f4565b8462000230565b602080601f831160018114620002ef5760008415620002d65750858301515b600019600386901b1c1916600185901b1785556200027a565b600085815260208120601f198616915b828110156200032057888601518255948401946001909101908401620002ff565b50858210156200033f5787850151600019600388901b60f8161c191681555b5050505050600190811b01905550565b611156806200035f6000396000f3fe608060405234801561001057600080fd5b50600436106101a35760003560e01c80638a94e1e1116100ee578063a5e99b8e11610097578063d547741f11610071578063d547741f146103ae578063dd62ed3e146103c1578063e58378bb146103fa578063ea1340711461042157600080fd5b8063a5e99b8e14610361578063a9059cbb14610374578063b5bfddea1461038757600080fd5b80639820f684116100c85780639820f684146103335780639dc29fac14610346578063a217fddf1461035957600080fd5b80638a94e1e1146102ec57806391d14854146102f457806395d89b411461032b57600080fd5b80632f2ff15d1161015057806340c10f191161012a57806340c10f19146102775780636c5de7081461028a57806370a08231146102c357600080fd5b80632f2ff15d14610240578063313ce5671461025557806336568abe1461026457600080fd5b806318160ddd1161018157806318160ddd146101f857806323b872dd1461020a578063248a9ca31461021d57600080fd5b806301ffc9a7146101a857806306fdde03146101d0578063095ea7b3146101e5575b600080fd5b6101bb6101b6366004610d53565b610434565b60405190151581526020015b60405180910390f35b6101d86104cd565b6040516101c79190610d9c565b6101bb6101f3366004610e06565b61055f565b6003545b6040519081526020016101c7565b6101bb610218366004610e30565b610577565b6101fc61022b366004610e6c565b60009081526020819052604090206001015490565b61025361024e366004610e85565b61059b565b005b604051601281526020016101c7565b610253610272366004610e85565b6105c6565b6101bb610285366004610e06565b610617565b60408051808201909152601d81527f6469643a6578616d706c653a353637343536383961626364656667686900000060208201526101d8565b6101fc6102d1366004610eb1565b6001600160a01b031660009081526001602052604090205490565b6101d861064d565b6101bb610302366004610e85565b6000918252602082815260408084206001600160a01b0393909316845291905290205460ff1690565b6101d861065c565b610253610341366004610ee2565b61066b565b6101bb610354366004610e06565b6106a1565b6101fc600081565b6101bb61036f366004610eb1565b6106d7565b6101bb610382366004610e06565b610739565b6101fc7f52ba824bfabc2bcfcdf7f0edbb486ebb05e1836c90e78047efeb949990f72e5f81565b6102536103bc366004610e85565b610747565b6101fc6103cf366004610f93565b6001600160a01b03918216600090815260026020908152604080832093909416825291909152205490565b6101fc7fb19546dff01e856fb3f010c267a7b1c60363cf8a4664e21cc89c26224620214e81565b6101bb61042f366004610eb1565b61076c565b60007fffffffff0000000000000000000000000000000000000000000000000000000082167f7965db0b0000000000000000000000000000000000000000000000000000000014806104c757507f01ffc9a7000000000000000000000000000000000000000000000000000000007fffffffff000000000000000000000000000000000000000000000000000000008316145b92915050565b6060600480546104dc90610fbd565b80601f016020809104026020016040519081016040528092919081815260200182805461050890610fbd565b80156105555780601f1061052a57610100808354040283529160200191610555565b820191906000526020600020905b81548152906001019060200180831161053857829003601f168201915b5050505050905090565b60003361056d8185856107f6565b5060019392505050565b600033610585858285610803565b610590858585610894565b506001949350505050565b6000828152602081905260409020600101546105b6816108f3565b6105c08383610900565b50505050565b6001600160a01b0381163314610608576040517f6697b23200000000000000000000000000000000000000000000000000000000815260040160405180910390fd5b61061282826109aa565b505050565b60007f52ba824bfabc2bcfcdf7f0edbb486ebb05e1836c90e78047efeb949990f72e5f610643816108f3565b61056d8484610a2d565b6060600680546104dc90610fbd565b6060600580546104dc90610fbd565b7fb19546dff01e856fb3f010c267a7b1c60363cf8a4664e21cc89c26224620214e610695816108f3565b6006610612838261103f565b60007f52ba824bfabc2bcfcdf7f0edbb486ebb05e1836c90e78047efeb949990f72e5f6106cd816108f3565b61056d8484610a67565b60007fb19546dff01e856fb3f010c267a7b1c60363cf8a4664e21cc89c26224620214e610703816108f3565b61072d7f52ba824bfabc2bcfcdf7f0edbb486ebb05e1836c90e78047efeb949990f72e5f84610900565b50600191505b50919050565b60003361056d818585610894565b600082815260208190526040902060010154610762816108f3565b6105c083836109aa565b6001600160a01b03811660009081527f7dcd276b72586271b4623598c6b3ecb5f3594881d1da5ce0d28e8f8adbf67787602052604081205460ff16156107b457506001919050565b6040517f1aee145f0000000000000000000000000000000000000000000000000000000081526001600160a01b03831660048201526024015b60405180910390fd5b6106128383836001610a9d565b6001600160a01b0383811660009081526002602090815260408083209386168352929052205460001981146105c05781811015610885576040517ffb8f41b20000000000000000000000000000000000000000000000000000000081526001600160a01b038416600482015260248101829052604481018390526064016107ed565b6105c084848484036000610a9d565b6001600160a01b0383166108be57604051634b637e8f60e11b8152600060048201526024016107ed565b6001600160a01b0382166108e85760405163ec442f0560e01b8152600060048201526024016107ed565b610612838383610ba4565b6108fd8133610ce7565b50565b6000828152602081815260408083206001600160a01b038516845290915281205460ff166109a2576000838152602081815260408083206001600160a01b03861684529091529020805460ff1916600117905561095a3390565b6001600160a01b0316826001600160a01b0316847f2f8788117e7eff1d82e926ec794901d17c78024a50270940304540a733656f0d60405160405180910390a45060016104c7565b5060006104c7565b6000828152602081815260408083206001600160a01b038516845290915281205460ff16156109a2576000838152602081815260408083206001600160a01b0386168085529252808320805460ff1916905551339286917ff6391f5c32d9c69d2a47ea670b442974b53935d1edc7fd64eb21e047a839171b9190a45060016104c7565b6001600160a01b038216610a575760405163ec442f0560e01b8152600060048201526024016107ed565b610a6360008383610ba4565b5050565b6001600160a01b038216610a9157604051634b637e8f60e11b8152600060048201526024016107ed565b610a6382600083610ba4565b6001600160a01b038416610ae0576040517fe602df05000000000000000000000000000000000000000000000000000000008152600060048201526024016107ed565b6001600160a01b038316610b23576040517f94280d62000000000000000000000000000000000000000000000000000000008152600060048201526024016107ed565b6001600160a01b03808516600090815260026020908152604080832093871683529290522082905580156105c057826001600160a01b0316846001600160a01b03167f8c5be1e5ebec7d5bd14f71427d1e84f3dd0314c0f7b2291e5b200ac8c7c3b92584604051610b9691815260200190565b60405180910390a350505050565b6001600160a01b038316610bcf578060036000828254610bc491906110ff565b90915550610c5a9050565b6001600160a01b03831660009081526001602052604090205481811015610c3b576040517fe450d38c0000000000000000000000000000000000000000000000000000000081526001600160a01b038516600482015260248101829052604481018390526064016107ed565b6001600160a01b03841660009081526001602052604090209082900390555b6001600160a01b038216610c7657600380548290039055610c95565b6001600160a01b03821660009081526001602052604090208054820190555b816001600160a01b0316836001600160a01b03167fddf252ad1be2c89b69c2b068fc378daa952ba7f163c4a11628f55a4df523b3ef83604051610cda91815260200190565b60405180910390a3505050565b6000828152602081815260408083206001600160a01b038516845290915290205460ff16610a63576040517fe2517d3f0000000000000000000000000000000000000000000000000000000081526001600160a01b0382166004820152602481018390526044016107ed565b600060208284031215610d6557600080fd5b81357fffffffff0000000000000000000000000000000000000000000000000000000081168114610d9557600080fd5b9392505050565b600060208083528351808285015260005b81811015610dc957858101830151858201604001528201610dad565b506000604082860101526040601f19601f8301168501019250505092915050565b80356001600160a01b0381168114610e0157600080fd5b919050565b60008060408385031215610e1957600080fd5b610e2283610dea565b946020939093013593505050565b600080600060608486031215610e4557600080fd5b610e4e84610dea565b9250610e5c60208501610dea565b9150604084013590509250925092565b600060208284031215610e7e57600080fd5b5035919050565b60008060408385031215610e9857600080fd5b82359150610ea860208401610dea565b90509250929050565b600060208284031215610ec357600080fd5b610d9582610dea565b634e487b7160e01b600052604160045260246000fd5b600060208284031215610ef457600080fd5b813567ffffffffffffffff80821115610f0c57600080fd5b818401915084601f830112610f2057600080fd5b813581811115610f3257610f32610ecc565b604051601f8201601f19908116603f01168101908382118183101715610f5a57610f5a610ecc565b81604052828152876020848701011115610f7357600080fd5b826020860160208301376000928101602001929092525095945050505050565b60008060408385031215610fa657600080fd5b610faf83610dea565b9150610ea860208401610dea565b600181811c90821680610fd157607f821691505b60208210810361073357634e487b7160e01b600052602260045260246000fd5b601f82111561061257600081815260208120601f850160051c810160208610156110185750805b601f850160051c820191505b8181101561103757828155600101611024565b505050505050565b815167ffffffffffffffff81111561105957611059610ecc565b61106d816110678454610fbd565b84610ff1565b602080601f8311600181146110a2576000841561108a5750858301515b600019600386901b1c1916600185901b178555611037565b600085815260208120601f198616915b828110156110d1578886015182559484019460019091019084016110b2565b50858210156110ef5787850151600019600388901b60f8161c191681555b5050505050600190811b01905550565b808201808211156104c757634e487b7160e01b600052601160045260246000fdfea2646970667358221220748d455f4513dd94f7d63072178acc955b388f67be469d6f1cbe2913cb9abe9164736f6c63430008140033","linkReferences":{}},"methodIdentifiers":{"BRIDGE_ROLE()":"b5bfddea","DEFAULT_ADMIN_ROLE()":"a217fddf","OWNER_ROLE()":"e58378bb","allowance(address,address)":"dd62ed3e","approve(address,uint256)":"095ea7b3","balanceOf(address)":"70a08231","burn(address,uint256)":"9dc29fac","decimals()":"313ce567","getRoleAdmin(bytes32)":"248a9ca3","getSchemaId()":"8a94e1e1","getSchemaProfile()":"6c5de708","grantBridgeRole(address)":"a5e99b8e","grantRole(bytes32,address)":"2f2ff15d","hasBridgeRole(address)":"ea134071","hasRole(bytes32,address)":"91d14854","mint(address,uint256)":"40c10f19","name()":"06fdde03","renounceRole(bytes32,address)":"36568abe","revokeRole(bytes32,address)":"d547741f","setSchemaId(string)":"9820f684","supportsInterface(bytes4)":"01ffc9a7","symbol()":"95d89b41","totalSupply()":"18160ddd","transfer(address,uint256)":"a9059cbb","transferFrom(address,address,uint256)":"23b872dd"},"id":14}