{"abi":[{"type":"constructor","inputs":[{"name":"_bridge_address","type":"address","internalType":"address"}],"stateMutability":"nonpayable"},{"type":"function","name":"assign","inputs":[{"name":"tokenId","type":"string","internalType":"string"},{"name":"receiver_account","type":"address","internalType":"address"},{"name":"amount","type":"uint256","internalType":"uint256"}],"outputs":[{"name":"success","type":"bool","internalType":"bool"}],"stateMutability":"nonpayable"},{"type":"function","name":"bridge_address","inputs":[],"outputs":[{"name":"","type":"address","internalType":"address"}],"stateMutability":"view"},{"type":"function","name":"burn","inputs":[{"name":"tokenId","type":"string","internalType":"string"},{"name":"amount","type":"uint256","internalType":"uint256"}],"outputs":[{"name":"success","type":"bool","internalType":"bool"}],"stateMutability":"nonpayable"},{"type":"function","name":"fetchSchemaProfile","inputs":[{"name":"contractAddress","type":"address","internalType":"address"}],"outputs":[{"name":"","type":"string","internalType":"string"}],"stateMutability":"view"},{"type":"function","name":"getAllAssetsIDs","inputs":[],"outputs":[{"name":"","type":"string[]","internalType":"string[]"}],"stateMutability":"view"},{"type":"function","name":"getToken","inputs":[{"name":"tokenId","type":"string","internalType":"string"}],"outputs":[{"name":"token","type":"tuple","internalType":"struct Token","components":[{"name":"contractName","type":"string","internalType":"string"},{"name":"contractAddress","type":"address","internalType":"address"},{"name":"tokenType","type":"uint8","internalType":"enum TokenType"},{"name":"tokenId","type":"string","internalType":"string"},{"name":"referenceId","type":"string","internalType":"string"},{"name":"owner","type":"address","internalType":"address"},{"name":"amount","type":"uint256","internalType":"uint256"}]}],"stateMutability":"view"},{"type":"function","name":"lock","inputs":[{"name":"tokenId","type":"string","internalType":"string"},{"name":"amount","type":"uint256","internalType":"uint256"}],"outputs":[{"name":"success","type":"bool","internalType":"bool"}],"stateMutability":"nonpayable"},{"type":"function","name":"mint","inputs":[{"name":"tokenId","type":"string","internalType":"string"},{"name":"amount","type":"uint256","internalType":"uint256"}],"outputs":[{"name":"success","type":"bool","internalType":"bool"}],"stateMutability":"nonpayable"},{"type":"function","name":"owner","inputs":[],"outputs":[{"name":"","type":"address","internalType":"address"}],"stateMutability":"view"},{"type":"function","name":"renounceOwnership","inputs":[],"outputs":[],"stateMutability":"nonpayable"},{"type":"function","name":"tokens","inputs":[{"name":"","type":"string","internalType":"string"}],"outputs":[{"name":"contractName","type":"string","internalType":"string"},{"name":"contractAddress","type":"address","internalType":"address"},{"name":"tokenType","type":"uint8","internalType":"enum TokenType"},{"name":"tokenId","type":"string","internalType":"string"},{"name":"referenceId","type":"string","internalType":"string"},{"name":"owner","type":"address","internalType":"address"},{"name":"amount","type":"uint256","internalType":"uint256"}],"stateMutability":"view"},{"type":"function","name":"tokensInteractions","inputs":[{"name":"","type":"string","internalType":"string"},{"name":"","type":"uint8","internalType":"enum InteractionType"}],"outputs":[{"name":"interactionType","type":"uint8","internalType":"enum InteractionType"},{"name":"available","type":"bool","internalType":"bool"}],"stateMutability":"view"},{"type":"function","name":"transferOwnership","inputs":[{"name":"newOwner","type":"address","internalType":"address"}],"outputs":[],"stateMutability":"nonpayable"},{"type":"function","name":"unlock","inputs":[{"name":"tokenId","type":"string","internalType":"string"},{"name":"amount","type":"uint256","internalType":"uint256"}],"outputs":[{"name":"success","type":"bool","internalType":"bool"}],"stateMutability":"nonpayable"},{"type":"function","name":"unwrap","inputs":[{"name":"tokenId","type":"string","internalType":"string"}],"outputs":[{"name":"success","type":"bool","internalType":"bool"}],"stateMutability":"nonpayable"},{"type":"function","name":"wrap","inputs":[{"name":"contractName","type":"string","internalType":"string"},{"name":"contractAddress","type":"address","internalType":"address"},{"name":"tokenType","type":"uint8","internalType":"enum TokenType"},{"name":"tokenId","type":"string","internalType":"string"},{"name":"referenceId","type":"string","internalType":"string"},{"name":"owner","type":"address","internalType":"address"}],"outputs":[{"name":"wrapSuccess","type":"bool","internalType":"bool"}],"stateMutability":"nonpayable"},{"type":"function","name":"wrap","inputs":[{"name":"contractName","type":"string","internalType":"string"},{"name":"contractAddress","type":"address","internalType":"address"},{"name":"tokenType","type":"uint8","internalType":"enum TokenType"},{"name":"tokenId","type":"string","internalType":"string"},{"name":"referenceId","type":"string","internalType":"string"},{"name":"owner","type":"address","internalType":"address"},{"name":"interactions","type":"tuple[]","internalType":"struct InteractionSignature[]","components":[{"name":"interactionType","type":"uint8","internalType":"enum InteractionType"},{"name":"functionsSignature","type":"string[]","internalType":"string[]"},{"name":"variables","type":"uint8[][]","internalType":"enum VarType[][]"},{"name":"available","type":"bool","internalType":"bool"}]}],"outputs":[{"name":"wrapSuccess","type":"bool","internalType":"bool"}],"stateMutability":"nonpayable"},{"type":"event","name":"Assign","inputs":[{"name":"tokenId","type":"string","indexed":true,"internalType":"string"},{"name":"receiver_account","type":"address","indexed":false,"internalType":"address"},{"name":"amount","type":"uint256","indexed":false,"internalType":"uint256"}],"anonymous":false},{"type":"event","name":"Burn","inputs":[{"name":"tokenId","type":"string","indexed":true,"internalType":"string"},{"name":"amount","type":"uint256","indexed":false,"internalType":"uint256"}],"anonymous":false},{"type":"event","name":"Changed","inputs":[{"name":"id","type":"string","indexed":true,"internalType":"string"},{"name":"value","type":"bytes[]","indexed":false,"internalType":"bytes[]"}],"anonymous":false},{"type":"event","name":"Lock","inputs":[{"name":"tokenId","type":"string","indexed":true,"internalType":"string"},{"name":"amount","type":"uint256","indexed":false,"internalType":"uint256"}],"anonymous":false},{"type":"event","name":"Mint","inputs":[{"name":"tokenId","type":"string","indexed":true,"internalType":"string"},{"name":"amount","type":"uint256","indexed":false,"internalType":"uint256"}],"anonymous":false},{"type":"event","name":"OwnershipTransferred","inputs":[{"name":"previousOwner","type":"address","indexed":true,"internalType":"address"},{"name":"newOwner","type":"address","indexed":true,"internalType":"address"}],"anonymous":false},{"type":"event","name":"Unlock","inputs":[{"name":"tokenId","type":"string","indexed":true,"internalType":"string"},{"name":"amount","type":"uint256","indexed":false,"internalType":"uint256"}],"anonymous":false},{"type":"event","name":"Unwrap","inputs":[{"name":"tokenId","type":"string","indexed":true,"internalType":"string"}],"anonymous":false},{"type":"event","name":"Wrap","inputs":[{"name":"tokenId","type":"string","indexed":true,"internalType":"string"},{"name":"contractName","type":"string","indexed":false,"internalType":"string"},{"name":"contractAddress","type":"address","indexed":false,"internalType":"address"},{"name":"tokenType","type":"uint8","indexed":false,"internalType":"enum TokenType"},{"name":"owner","type":"address","indexed":false,"internalType":"address"}],"anonymous":false},{"type":"error","name":"InsuficientAmountLocked","inputs":[{"name":"tokenId","type":"string","internalType":"string"},{"name":"amount","type":"uint256","internalType":"uint256"}]},{"type":"error","name":"OwnableInvalidOwner","inputs":[{"name":"owner","type":"address","internalType":"address"}]},{"type":"error","name":"OwnableUnauthorizedAccount","inputs":[{"name":"account","type":"address","internalType":"address"}]},{"type":"error","name":"TokenAlreadyWrapped","inputs":[{"name":"tokenId","type":"string","internalType":"string"}]},{"type":"error","name":"TokenLocked","inputs":[{"name":"tokenId","type":"string","internalType":"string"}]},{"type":"error","name":"TokenNotAvailable","inputs":[{"name":"tokenId","type":"string","internalType":"string"}]},{"type":"error","name":"TokenNotLocked","inputs":[{"name":"tokenId","type":"string","internalType":"string"}]},{"type":"error","name":"TokenNotUnlocked","inputs":[{"name":"tokenId","type":"string","internalType":"string"}]}],"bytecode":{"object":"0x60806040523480156200001157600080fd5b50604051620032b1380380620032b18339810160408190526200003491620000e6565b806001600160a01b0381166200006457604051631e4fbdf760e01b81526000600482015260240160405180910390fd5b6200006f8162000096565b50600480546001600160a01b0319166001600160a01b039290921691909117905562000118565b600080546001600160a01b038381166001600160a01b0319831681178455604051919092169283917f8be0079c531659141344cd1fd0a4f28419497f9722a3daafe3b4186f6b6457e09190a35050565b600060208284031215620000f957600080fd5b81516001600160a01b03811681146200011157600080fd5b9392505050565b61318980620001286000396000f3fe608060405234801561001057600080fd5b506004361061011b5760003560e01c8063a1bc17c5116100b2578063dbb7e91211610081578063ea8f547f11610066578063ea8f547f1461027f578063f272660b146102d6578063f2fde38b146102e957600080fd5b8063dbb7e9121461024c578063e1efb5961461026c57600080fd5b8063a1bc17c5146101f3578063b48272cc14610206578063c1733f6814610219578063d9cf884c1461023957600080fd5b80635137b8a7116100ee5780635137b8a7146101b05780636a0876e0146101c5578063715018a6146101d85780638da5cb5b146101e257600080fd5b806304c2320b14610120578063056b01ce1461014f5780631255c189146101725780634534ba171461019d575b600080fd5b61013361012e366004612332565b6102fc565b60405161014697969594939291906123e1565b60405180910390f35b61016261015d36600461244d565b6104f5565b6040519015158152602001610146565b600454610185906001600160a01b031681565b6040516001600160a01b039091168152602001610146565b6101626101ab3660046124a9565b61062e565b6101b8610799565b6040516101469190612500565b6101626101d3366004612571565b610872565b6101e0610957565b005b6000546001600160a01b0316610185565b610162610201366004612332565b61096b565b61016261021436600461244d565b610bb2565b61022c610227366004612332565b610d00565b604051610146919061262a565b61016261024736600461244d565b610f84565b61025f61025a3660046126d2565b611117565b60405161014691906126ed565b61016261027a36600461244d565b61117f565b6102c861028d36600461270f565b8151602081840181018051600282529282019482019490942091909352909152600090815260409020805460039091015460ff918216911682565b60405161014692919061276d565b6101626102e4366004612a32565b6112a5565b6101e06102f73660046126d2565b6115d6565b805160208183018101805160018252928201919093012091528054819061032290612b11565b80601f016020809104026020016040519081016040528092919081815260200182805461034e90612b11565b801561039b5780601f106103705761010080835404028352916020019161039b565b820191906000526020600020905b81548152906001019060200180831161037e57829003601f168201915b50505050600183015460028401805493946001600160a01b03831694600160a01b90930460ff169350916103ce90612b11565b80601f01602080910402602001604051908101604052809291908181526020018280546103fa90612b11565b80156104475780601f1061041c57610100808354040283529160200191610447565b820191906000526020600020905b81548152906001019060200180831161042a57829003601f168201915b50505050509080600301805461045c90612b11565b80601f016020809104026020016040519081016040528092919081815260200182805461048890612b11565b80156104d55780601f106104aa576101008083540402835291602001916104d5565b820191906000526020600020905b8154815290600101906020018083116104b857829003601f168201915b50505050600483015460059093015491926001600160a01b031691905087565b60006104ff61162d565b60006001600160a01b031660018460405161051a9190612b4b565b908152604051908190036020019020600101546001600160a01b03160361055f578260405163c0bab25f60e01b815260040161055691906126ed565b60405180910390fd5b61056b83600084611673565b6105b75760405162461bcd60e51b815260206004820152601660248201527f6d696e742061737365742063616c6c206661696c6564000000000000000000006044820152606401610556565b816001846040516105c89190612b4b565b908152604051908190036020018120600501919091556105e9908490612b4b565b604051908190038120838252907f0a4e1e5035320483d096cf114513007c4eda3853a4dca806da2d9faec60470a6906020015b60405180910390a25060015b92915050565b600061063861162d565b816001856040516106499190612b4b565b90815260200160405180910390206005015410156106a95760405162461bcd60e51b815260206004820181905260248201527f61737369676e206173736574206173736574206973206e6f74206c6f636b65646044820152606401610556565b6106b6846002848661168a565b6107025760405162461bcd60e51b815260206004820152601860248201527f61737369676e2061737365742063616c6c206661696c656400000000000000006044820152606401610556565b816001856040516107139190612b4b565b908152602001604051809103902060050160008282546107339190612b7d565b9091555050604051610746908590612b4b565b604080519182900382206001600160a01b038616835260208301859052917f0b3112bdbedc0251766a323a5c6ad4df77174bbc08bd61b944815ad9efe8d54c910160405180910390a25060019392505050565b60606003805480602002602001604051908101604052809291908181526020016000905b828210156108695783829060005260206000200180546107dc90612b11565b80601f016020809104026020016040519081016040528092919081815260200182805461080890612b11565b80156108555780601f1061082a57610100808354040283529160200191610855565b820191906000526020600020905b81548152906001019060200180831161083857829003601f168201915b5050505050815260200190600101906107bd565b50505050905090565b600061087c61162d565b3063f272660b88888888888860006040519080825280602002602001820160405280156108e657816020015b6108d36040805160808101909152806000815260606020820181905260408201819052600091015290565b8152602001906001900390816108a85790505b506040518863ffffffff1660e01b81526004016109099796959493929190612c1c565b6020604051808303816000875af1158015610928573d6000803e3d6000fd5b505050506040513d601f19601f8201168201806040525081019061094c9190612d73565b979650505050505050565b61095f61162d565b61096960006119a6565b565b600061097561162d565b60006001600160a01b03166001836040516109909190612b4b565b908152604051908190036020019020600101546001600160a01b0316036109cc578160405163c0bab25f60e01b815260040161055691906126ed565b60006001836040516109de9190612b4b565b9081526020016040518091039020600501541115610a2a57816040517fb7d2c10a00000000000000000000000000000000000000000000000000000000815260040161055691906126ed565b610adc600183604051610a3d9190612b4b565b90815260200160405180910390206002018054610a5990612b11565b80601f0160208091040260200160405190810160405280929190818152602001828054610a8590612b11565b8015610ad25780601f10610aa757610100808354040283529160200191610ad2565b820191906000526020600020905b815481529060010190602001808311610ab557829003601f168201915b5050505050611a03565b600182604051610aec9190612b4b565b9081526040519081900360200190206000610b078282612037565b60018201805474ffffffffffffffffffffffffffffffffffffffffff19169055610b35600283016000612037565b610b43600383016000612037565b5060048101805473ffffffffffffffffffffffffffffffffffffffff191690556000600590910155604051610b79908390612b4b565b604051908190038120907f3855d31914452a5e7361730662e60834555d7cb26d380140894d85fd0d13b85490600090a25060015b919050565b6000610bbc61162d565b81600184604051610bcd9190612b4b565b9081526020016040518091039020600501541015610c2d5760405162461bcd60e51b815260206004820152601e60248201527f6275726e206173736574206173736574206973206e6f74206c6f636b656400006044820152606401610556565b610c3983600184611673565b610c855760405162461bcd60e51b815260206004820152601660248201527f6275726e2061737365742063616c6c206661696c6564000000000000000000006044820152606401610556565b81600184604051610c969190612b4b565b90815260200160405180910390206005016000828254610cb69190612b7d565b9091555050604051610cc9908490612b4b565b604051908190038120838252907fa0237080cf48d9e1fbb9ef1f82e33b11170d047b2b540a73b457d0916d53ee999060200161061c565b6040805160e0810182526060808252600060208301819052928201839052808201819052608082015260a0810182905260c0810191909152600182604051610d489190612b4b565b90815260200160405180910390206040518060e0016040529081600082018054610d7190612b11565b80601f0160208091040260200160405190810160405280929190818152602001828054610d9d90612b11565b8015610dea5780601f10610dbf57610100808354040283529160200191610dea565b820191906000526020600020905b815481529060010190602001808311610dcd57829003601f168201915b505050918352505060018201546001600160a01b0381166020830152604090910190600160a01b900460ff166004811115610e2757610e276123b7565b6004811115610e3857610e386123b7565b8152602001600282018054610e4c90612b11565b80601f0160208091040260200160405190810160405280929190818152602001828054610e7890612b11565b8015610ec55780601f10610e9a57610100808354040283529160200191610ec5565b820191906000526020600020905b815481529060010190602001808311610ea857829003601f168201915b50505050508152602001600382018054610ede90612b11565b80601f0160208091040260200160405190810160405280929190818152602001828054610f0a90612b11565b8015610f575780601f10610f2c57610100808354040283529160200191610f57565b820191906000526020600020905b815481529060010190602001808311610f3a57829003601f168201915b505050918352505060048201546001600160a01b0316602082015260059091015460409091015292915050565b6000610f8e61162d565b60006001600160a01b0316600184604051610fa99190612b4b565b908152604051908190036020019020600101546001600160a01b031603610fe5578260405163c0bab25f60e01b815260040161055691906126ed565b81600184604051610ff69190612b4b565b90815260200160405180910390206005015410156110445782826040517fed579e60000000000000000000000000000000000000000000000000000000008152600401610556929190612d90565b600061105284600585611673565b905080156110e3578260018560405161106b9190612b4b565b9081526020016040518091039020600501600082825461108b9190612b7d565b909155505060405161109e908590612b4b565b604051908190038120848252907f7b3c894115251262b174b7aeab24a57e00bc2e8853d1ef2f57a217edaa69c06e906020015b60405180910390a26001915050610628565b836040517f58300fe700000000000000000000000000000000000000000000000000000000815260040161055691906126ed565b6060816001600160a01b0316636c5de7086040518163ffffffff1660e01b8152600401600060405180830381865afa158015611157573d6000803e3d6000fd5b505050506040513d6000823e601f3d908101601f191682016040526106289190810190612db2565b600061118961162d565b60006001600160a01b03166001846040516111a49190612b4b565b908152604051908190036020019020600101546001600160a01b0316036111e0578260405163c0bab25f60e01b815260040161055691906126ed565b60006111ee84600485611673565b9050801561127157826001856040516112079190612b4b565b908152602001604051809103902060050160008282546112279190612e29565b909155505060405161123a908590612b4b565b604051908190038120848252907fc480ef4e831b2ca5eb0b2f95c6564d9a56af5b3fe2383393008e3f1708dc9797906020016110d1565b836040517f8244096a00000000000000000000000000000000000000000000000000000000815260040161055691906126ed565b60006112af61162d565b60006001600160a01b03166001866040516112ca9190612b4b565b908152604051908190036020019020600101546001600160a01b03161461131f57846040517f67ab234400000000000000000000000000000000000000000000000000000000815260040161055691906126ed565b6113298583611b61565b6002856040516113399190612b4b565b9081526040805160209281900383019020600360008181529190935220015460ff16156113dd5761136b856003611c81565b6113dd5760405162461bcd60e51b815260206004820152603c60248201527f436f6e747261637420646f6573206e6f742068617665207065726d697373696f60448201527f6e20746f20696e74657261637420776974682074686520746f6b656e000000006064820152608401610556565b6040518060e00160405280898152602001886001600160a01b0316815260200187600481111561140f5761140f6123b7565b8152602001868152602001858152602001846001600160a01b0316815260200160008152506001866040516114449190612b4b565b908152604051908190036020019020815181906114619082612e8a565b5060208201516001820180546001600160a01b0390921673ffffffffffffffffffffffffffffffffffffffff1983168117825560408501519274ffffffffffffffffffffffffffffffffffffffffff191617600160a01b8360048111156114ca576114ca6123b7565b0217905550606082015160028201906114e39082612e8a565b50608082015160038201906114f89082612e8a565b5060a082015160048201805473ffffffffffffffffffffffffffffffffffffffff19166001600160a01b0390921691909117905560c090910151600590910155600380546001810182556000919091527fc2575a0e9e593c00f959f8c92f12db2869c3395a3b0502d05e2516446f71f85b016115748682612e8a565b50846040516115839190612b4b565b60405180910390207f1455a30f034090309f76768ab435a6bd3c547427fc31dbe48477cfb5b9f47dda898989876040516115c09493929190612f4a565b60405180910390a2506001979650505050505050565b6115de61162d565b6001600160a01b038116611621576040517f1e4fbdf700000000000000000000000000000000000000000000000000000000815260006004820152602401610556565b61162a816119a6565b50565b6000546001600160a01b03163314610969576040517f118cdaa7000000000000000000000000000000000000000000000000000000008152336004820152602401610556565b6000611682848484600061168a565b949350505050565b600060028560405161169c9190612b4b565b908152602001604051809103902060008560058111156116be576116be6123b7565b60058111156116cf576116cf6123b7565b815260208101919091526040016000206003015460ff166116f257506000611682565b60005b6002866040516117059190612b4b565b90815260200160405180910390206000866005811115611727576117276123b7565b6005811115611738576117386123b7565b815260208101919091526040016000206001015481101561199a5760006002876040516117659190612b4b565b90815260200160405180910390206000876005811115611787576117876123b7565b6005811115611798576117986123b7565b815260200190815260200160002060010182815481106117ba576117ba612f8e565b906000526020600020016040516020016117d49190612fa4565b60405160208183030381529060405280519060200120905060006118f0826118eb60028b6040516118059190612b4b565b908152602001604051809103902060008b6005811115611827576118276123b7565b6005811115611838576118386123b7565b8152602001908152602001600020600201868154811061185a5761185a612f8e565b906000526020600020018054806020026020016040519081016040528092919081815260200182805480156118de57602002820191906000526020600020906000905b82829054906101000a900460ff1660068111156118bc576118bc6123b7565b81526020600192830181810494850194909303909202910180841161189d5790505b50505050508b898b611c97565b611f71565b905060006001896040516119049190612b4b565b908152604051908190036020018120600101546001600160a01b03169061192c908490612b4b565b6000604051808303816000865af19150503d8060008114611969576040519150601f19603f3d011682016040523d82523d6000602084013e61196e565b606091505b5050905080611984576000945050505050611682565b50505080806119929061301a565b9150506116f5565b50600195945050505050565b600080546001600160a01b0383811673ffffffffffffffffffffffffffffffffffffffff19831681178455604051919092169283917f8be0079c531659141344cd1fd0a4f28419497f9722a3daafe3b4186f6b6457e09190a35050565b60005b600354811015611b5d57611abf60038281548110611a2657611a26612f8e565b906000526020600020018054611a3b90612b11565b80601f0160208091040260200160405190810160405280929190818152602001828054611a6790612b11565b8015611ab45780601f10611a8957610100808354040283529160200191611ab4565b820191906000526020600020905b815481529060010190602001808311611a9757829003601f168201915b505050505083612012565b15611b4b5760038054611ad490600190612b7d565b81548110611ae457611ae4612f8e565b9060005260206000200160038281548110611b0157611b01612f8e565b906000526020600020019081611b179190613033565b506003805480611b2957611b2961310e565b600190038181906000526020600020016000611b459190612037565b90555050565b80611b558161301a565b915050611a06565b5050565b60005b8151811015611c7c57818181518110611b7f57611b7f612f8e565b6020026020010151600284604051611b979190612b4b565b90815260200160405180910390206000848481518110611bb957611bb9612f8e565b6020026020010151600001516005811115611bd657611bd66123b7565b6005811115611be757611be76123b7565b8152602081019190915260400160002081518154829060ff19166001836005811115611c1557611c156123b7565b02179055506020828101518051611c329260018501920190612071565b5060408201518051611c4e9160028401916020909101906120c7565b50606091909101516003909101805460ff191691151591909117905580611c748161301a565b915050611b64565b505050565b6000611c90838360008061168a565b9392505050565b60606000855167ffffffffffffffff811115611cb557611cb5612244565b604051908082528060200260200182016040528015611ce857816020015b6060815260200190600190039081611cd35790505b50905060005b8651811015611f67576005878281518110611d0b57611d0b612f8e565b60200260200101516006811115611d2457611d246123b7565b03611d665760408051306020820152015b604051602081830303815290604052828281518110611d5657611d56612f8e565b6020026020010181905250611f55565b6002878281518110611d7a57611d7a612f8e565b60200260200101516006811115611d9357611d936123b7565b03611da95785604051602001611d3591906126ed565b6004878281518110611dbd57611dbd612f8e565b60200260200101516006811115611dd657611dd66123b7565b03611dec57604080516020810186905201611d35565b6003878281518110611e0057611e00612f8e565b60200260200101516006811115611e1957611e196123b7565b03611e5757600186604051611e2e9190612b4b565b908152604080519182900360209081018320600401546001600160a01b03169083015201611d35565b6000878281518110611e6b57611e6b612f8e565b60200260200101516006811115611e8457611e846123b7565b03611ec257600186604051611e999190612b4b565b908152604080519182900360209081018320600101546001600160a01b03169083015201611d35565b6006878281518110611ed657611ed6612f8e565b60200260200101516006811115611eef57611eef6123b7565b03611f0d57604080516001600160a01b038716602082015201611d35565b60405162461bcd60e51b815260206004820152601660248201527f5661726961626c65206e6f7420737570706f72746564000000000000000000006044820152606401610556565b80611f5f8161301a565b915050611cee565b5095945050505050565b604080517fffffffff000000000000000000000000000000000000000000000000000000008416602082015281516004818303018152602490910190915260005b825181101561200b5781838281518110611fce57611fce612f8e565b6020026020010151604051602001611fe7929190613124565b604051602081830303815290604052915080806120039061301a565b915050611fb2565b5092915050565b600081518351148015611c905750508051602091820120825192909101919091201490565b50805461204390612b11565b6000825580601f10612053575050565b601f01602090049060005260206000209081019061162a9190612120565b8280548282559060005260206000209081019282156120b7579160200282015b828111156120b757825182906120a79082612e8a565b5091602001919060010190612091565b506120c3929150612135565b5090565b828054828255906000526020600020908101928215612114579160200282015b828111156121145782518051612104918491602090910190612152565b50916020019190600101906120e7565b506120c3929150612202565b5b808211156120c35760008155600101612121565b808211156120c35760006121498282612037565b50600101612135565b82805482825590600052602060002090601f016020900481019282156121f65791602002820160005b838211156121c757835183826101000a81548160ff021916908360068111156121a6576121a66123b7565b0217905550926020019260010160208160000104928301926001030261217b565b80156121f45782816101000a81549060ff02191690556001016020816000010492830192600103026121c7565b505b506120c3929150612120565b808211156120c3576000612216828261221f565b50600101612202565b50805460008255601f01602090049060005260206000209081019061162a9190612120565b634e487b7160e01b600052604160045260246000fd5b6040516080810167ffffffffffffffff8111828210171561227d5761227d612244565b60405290565b604051601f8201601f1916810167ffffffffffffffff811182821017156122ac576122ac612244565b604052919050565b600067ffffffffffffffff8211156122ce576122ce612244565b50601f01601f191660200190565b600082601f8301126122ed57600080fd5b81356123006122fb826122b4565b612283565b81815284602083860101111561231557600080fd5b816020850160208301376000918101602001919091529392505050565b60006020828403121561234457600080fd5b813567ffffffffffffffff81111561235b57600080fd5b611682848285016122dc565b60005b8381101561238257818101518382015260200161236a565b50506000910152565b600081518084526123a3816020860160208601612367565b601f01601f19169290920160200192915050565b634e487b7160e01b600052602160045260246000fd5b600581106123dd576123dd6123b7565b9052565b60e0815260006123f460e083018a61238b565b6001600160a01b03808a166020850152612411604085018a6123cd565b8382036060850152612423828961238b565b91508382036080850152612437828861238b565b951660a0840152505060c0015295945050505050565b6000806040838503121561246057600080fd5b823567ffffffffffffffff81111561247757600080fd5b612483858286016122dc565b95602094909401359450505050565b80356001600160a01b0381168114610bad57600080fd5b6000806000606084860312156124be57600080fd5b833567ffffffffffffffff8111156124d557600080fd5b6124e1868287016122dc565b9350506124f060208501612492565b9150604084013590509250925092565b6000602080830181845280855180835260408601915060408160051b870101925083870160005b8281101561255557603f1988860301845261254385835161238b565b94509285019290850190600101612527565b5092979650505050505050565b803560058110610bad57600080fd5b60008060008060008060c0878903121561258a57600080fd5b863567ffffffffffffffff808211156125a257600080fd5b6125ae8a838b016122dc565b97506125bc60208a01612492565b96506125ca60408a01612562565b955060608901359150808211156125e057600080fd5b6125ec8a838b016122dc565b9450608089013591508082111561260257600080fd5b5061260f89828a016122dc565b92505061261e60a08801612492565b90509295509295509295565b602081526000825160e0602084015261264761010084018261238b565b905060208401516001600160a01b0380821660408601526040860151915061267260608601836123cd565b60608601519150601f1980868503016080870152612690848461238b565b935060808701519250808685030160a0870152506126ae838361238b565b92508060a08701511660c0860152505060c084015160e08401528091505092915050565b6000602082840312156126e457600080fd5b611c9082612492565b602081526000611c90602083018461238b565b803560068110610bad57600080fd5b6000806040838503121561272257600080fd5b823567ffffffffffffffff81111561273957600080fd5b612745858286016122dc565b92505061275460208401612700565b90509250929050565b600681106123dd576123dd6123b7565b6040810161277b828561275d565b82151560208301529392505050565b600067ffffffffffffffff8211156127a4576127a4612244565b5060051b60200190565b600082601f8301126127bf57600080fd5b813560206127cf6122fb8361278a565b828152600592831b85018201928282019190878511156127ee57600080fd5b8387015b8581101561289357803567ffffffffffffffff8111156128125760008081fd5b8801603f81018a136128245760008081fd5b8581013560406128366122fb8361278a565b82815291851b8301810191888101908d8411156128535760008081fd5b938201935b838510156128825784359250600783106128725760008081fd5b8282529389019390890190612858565b8852505050938501935084016127f2565b5090979650505050505050565b801515811461162a57600080fd5b8035610bad816128a0565b600082601f8301126128ca57600080fd5b6128d76122fb833561278a565b82358082526020808301929160051b850101858111156128f657600080fd5b602085015b81811015612a275767ffffffffffffffff808235111561291a57600080fd5b813587016080818a03601f1901121561293257600080fd5b61293a61225a565b61294660208301612700565b815260408201358381111561295a57600080fd5b8201603f81018b1361296b57600080fd5b602081013561297c6122fb8261278a565b81815260059190911b82016040019060208101908d83111561299d57600080fd5b604084015b838110156129d65787813511156129b857600080fd5b6129c88f604083358801016122dc565b8352602092830192016129a2565b5060208501525050506060820135838111156129f157600080fd5b612a008b6020838601016127ae565b604083015250612a12608083016128ae565b606082015286525050602093840193016128fb565b509095945050505050565b600080600080600080600060e0888a031215612a4d57600080fd5b873567ffffffffffffffff80821115612a6557600080fd5b612a718b838c016122dc565b9850612a7f60208b01612492565b9750612a8d60408b01612562565b965060608a0135915080821115612aa357600080fd5b612aaf8b838c016122dc565b955060808a0135915080821115612ac557600080fd5b612ad18b838c016122dc565b9450612adf60a08b01612492565b935060c08a0135915080821115612af557600080fd5b50612b028a828b016128b9565b91505092959891949750929550565b600181811c90821680612b2557607f821691505b602082108103612b4557634e487b7160e01b600052602260045260246000fd5b50919050565b60008251612b5d818460208701612367565b9190910192915050565b634e487b7160e01b600052601160045260246000fd5b8181038181111561062857610628612b67565b600081518084526020808501808196508360051b810191508286016000805b86811015612c0e578385038a52825180518087529087019087870190845b81811015612bf957835160078110612be757612be76123b7565b83529289019291890191600101612bcd565b50509a87019a95505091850191600101612baf565b509298975050505050505050565b60e081526000612c2f60e083018a61238b565b60206001600160a01b03808b16828601526040612c4e8187018c6123cd565b606086850381880152612c61858c61238b565b9450608087860381890152612c76868c61238b565b955060a0848b16818a015288870360c08a015286945089518088528688019550868160051b890101878c0160005b83811015612d5957601f198b84030189528151868401612cc585835161275d565b818c0151858d01899052805191829052600582901b8601880191908d01908887019060005b81811015612d1857609f19898603018352612d0685855161238b565b9450928f0192918f0191600101612cea565b50505050898201518582038b870152612d318282612b90565b928a0151801515878c0152929150612d469050565b998b019993505090890190600101612ca4565b505080995050505050505050505098975050505050505050565b600060208284031215612d8557600080fd5b8151611c90816128a0565b604081526000612da3604083018561238b565b90508260208301529392505050565b600060208284031215612dc457600080fd5b815167ffffffffffffffff811115612ddb57600080fd5b8201601f81018413612dec57600080fd5b8051612dfa6122fb826122b4565b818152856020838501011115612e0f57600080fd5b612e20826020830160208601612367565b95945050505050565b8082018082111561062857610628612b67565b601f821115611c7c57600081815260208120601f850160051c81016020861015612e635750805b601f850160051c820191505b81811015612e8257828155600101612e6f565b505050505050565b815167ffffffffffffffff811115612ea457612ea4612244565b612eb881612eb28454612b11565b84612e3c565b602080601f831160018114612eed5760008415612ed55750858301515b600019600386901b1c1916600185901b178555612e82565b600085815260208120601f198616915b82811015612f1c57888601518255948401946001909101908401612efd565b5085821015612f3a5787850151600019600388901b60f8161c191681555b5050505050600190811b01905550565b608081526000612f5d608083018761238b565b90506001600160a01b038086166020840152612f7c60408401866123cd565b80841660608401525095945050505050565b634e487b7160e01b600052603260045260246000fd5b6000808354612fb281612b11565b60018281168015612fca5760018114612fdf5761300e565b60ff198416875282151583028701945061300e565b8760005260208060002060005b858110156130055781548a820152908401908201612fec565b50505082870194505b50929695505050505050565b60006001820161302c5761302c612b67565b5060010190565b81810361303e575050565b6130488254612b11565b67ffffffffffffffff81111561306057613060612244565b61306e81612eb28454612b11565b6000601f8211600181146130a2576000831561308a5750848201545b600019600385901b1c1916600184901b178455613107565b600085815260209020601f19841690600086815260209020845b838110156130dc57828601548255600195860195909101906020016130bc565b50858310156130fa5781850154600019600388901b60f8161c191681555b50505060018360011b0184555b5050505050565b634e487b7160e01b600052603160045260246000fd5b60008351613136818460208801612367565b83519083019061314a818360208801612367565b0194935050505056fea26469706673582212206f7f74b822ac12d1b1b5b39b9232bd58fefc867ec5fcc052ed4f5aefee4e145364736f6c63430008140033","linkReferences":{}},"methodIdentifiers":{"assign(string,address,uint256)":"4534ba17","bridge_address()":"1255c189","burn(string,uint256)":"b48272cc","fetchSchemaProfile(address)":"dbb7e912","getAllAssetsIDs()":"5137b8a7","getToken(string)":"c1733f68","lock(string,uint256)":"e1efb596","mint(string,uint256)":"056b01ce","owner()":"8da5cb5b","renounceOwnership()":"715018a6","tokens(string)":"04c2320b","tokensInteractions(string,uint8)":"ea8f547f","transferOwnership(address)":"f2fde38b","unlock(string,uint256)":"d9cf884c","unwrap(string)":"a1bc17c5","wrap(string,address,uint8,string,string,address)":"6a0876e0","wrap(string,address,uint8,string,string,address,(uint8,string[],uint8[][],bool)[])":"f272660b"},"id":6}